:100000000C9470000C9480140C9459140C94980067
:100010000C9498000C9498000C9498000C94980000
:100020000C9498000C9498000C9498000C949800F0
:100030000C9498000C9498000C9498000C949800E0
:100040000C940F140C9498000C94CD140C94A714D9
:100050000C9498000C9498000C9498000C949800C0
:100060000C9498000C9498008E0BCE0C150D4C0D32
:10007000930DFB0DF20B3E0E000000002400270044
:100080002A0000000000250028002B0000000000CE
:1000900023002600290004040404040404040202CA
:1000A0000202020203030303030302020301020428
:1000B00008102040800102040810200102040810EA
:1000C00020408040000000090003020000040508F1
:1000D0000000000000000000000000009618581CFE
:1000E00011241FBECFEFD8E0DEBFCDBF13E0A0E0EC
:1000F000B1E0E4EFFAE302C005900D92AA36B10731
:10010000D9F727E0AAE6B3E001C01D92A53CB207EB
:10011000E1F710E0CFE6D0E004C02197FE010E9495
:10012000471DCE36D107C9F70E94171A0C946D1DD2
:100130000C940000CF92DF92EF92FF920F931F93E7
:10014000CF93DF9380919003845F80933F07E0908B
:100150003601F12C20913E070FE317E0E0E0F0E0DC
:10016000C22FD0E08DE0289F900111242E523E4FE7
:100170006901ACE0CA0ED11CEE15FF0594F4D8015C
:100180004D918D01D6016C9170E0CF010E94331D1D
:10019000D901A80FB91F8C91480FD8014C93319603
:1001A000EBCF20910E018091140190911301222335
:1001B00081F02DE02C9FF0012D9FF00D1124EE52C7
:1001C000FE4F2485829F802D11248093370191500A
:1001D0000FC02DE02C9FF0012D9FF00D1124EE5249
:1001E000FE4F24858150829F802D112480933701FA
:1001F000929F902D112490933801DF91CF911F9100
:100200000F91FF90EF90DF90CF90089561E070E044
:1002100082E090E00E94B70E62E070E081E090E042
:100220000E94B70E63E070E084E090E00E94B70E99
:1002300064E070E086E090E00E94B70E65E070E058
:1002400085E090E00E94B70E66E070E080E090E00C
:100250000E94B70E67E070E083E090E00C94B70E68
:10026000FF920F931F93CF93DF93082F862FF42EC7
:1002700060E00E94861260E08EE00E948612C7E075
:10028000D0E010E0B8010C2E02C0759567950A9475
:10029000E2F761708AE00E94861261E08FE00E94BE
:1002A000861260E08FE00E948612219758F761E085
:1002B0008EE00E94861261E08F2DDF91CF911F9119
:1002C0000F91FF900C94861280918F038130D1F0B2
:1002D00068F0823029F5E091AB03F0E0E95BFE4F76
:1002E00040E161E180810E9430011AC0E091A903E0
:1002F000F0E0E95BFE4F42E160E180810E94300165
:1003000081E00BC0E091AA03F0E0E95BFE4F41E120
:1003100062E180810E94300182E080938F03089522
:1003200010928F030895E42FF0E0ED5FFE4F2081DF
:1003300030E0A901460F571F841795072CF4621B64
:10034000730B6817790724F083E0808381E00895B8
:1003500080E008959C018A30910554F0EAE0F0E0D5
:10036000BF010E94331DCB01BF010E94331D01C09C
:1003700080E48093AA03C9016AE070E00E94331D03
:100380008093AB03089580913E0790E001960E9410
:10039000AA0180919003805E8093A90308959C0137
:1003A0008436910554F064E670E00E94331DCB0161
:1003B0006AE070E00E94331D01C080E48093A903CD
:1003C000C9010C94AA01CF93DF93C82F682F6170E5
:1003D00086E00E948612D0E0BE0175956795617037
:1003E00087E00E948612D595C795D595C7956C2F45
:1003F000617088E00E94861285E480937C00809181
:100400007A00806480937A0080917A0086FDFCCF28
:10041000809178002091790090E0922BDF91CF912C
:100420000895EF92FF921F93CF93DF93DC018C919D
:100430009C919E7F9C939C919D7F9C93182F117003
:1004400080FF16C05D96ED91FC915E97309781F02C
:10045000ED01ABA1BCA11496ED90FC9015971596FB
:10046000DC93CE9314970995EBA1FCA1F582E4826D
:10047000812FDF91CF911F91FF90EF90089581E040
:100480008093A80385E59AE090933E0580933D050F
:100490008BEA97E19093CC038093CB0380ED99E0B6
:1004A0009093F4048093F3048FEF94E00C94110282
:1004B0004F925F926F927F928F929F92AF92BF9274
:1004C000CF92DF92EF92FF920F931F93CF93DF9320
:1004D00050901F016090900370903E07809014012F
:1004E00090901301A0901501B0900E01EFE9F7E094
:1004F000C280D480E680F08402851485D685C091C0
:100500001C0170911D0160919303509192034091E1
:10051000AC03309120012091AF0380913D01909177
:100520003E01A0913F01B0914001E0E7F3E040902F
:10053000D001408251826282738284829582A68237
:10054000B782C086D186E286F38604871587D68770
:10055000C787708B618B528B438B348B258B868B3B
:10056000978BA08FB18F60916F038AE1689FB00174
:100570001124665F7F4F4AE150E0CF010E94A81C22
:1005800086E494E0DF91CF911F910F91FF90EF905F
:10059000DF90CF90BF90AF909F908F907F906F90A3
:1005A0005F904F900C9411026091450181E090E0C2
:1005B0000E94B21C8AE08093AB0386E494E00C9422
:1005C0001102CF93DF93EC0149835A836B837C83C1
:1005D00089819A81AB81BC818D839E83AF83B887EB
:1005E0000E94F11269877A878B879C87DF91CF9170
:1005F00008951092A70382EB93E00E94110287ED09
:1006000093E00E941102E99886E193E190933C0106
:1006100080933B0186ED96E090933B0480933A04EF
:1006200088EE96E19093CC038093CB0340914101F7
:1006300050914201609143017091440189E495E039
:100640000E94E1028EE495E090933E0580933D0583
:10065000089581E08093A70382EB93E00E9411024A
:1006600087ED93E00E941102E99886E193E190936F
:100670003C0180933B0189EA95E19093CC03809300
:10068000CB0340913D0150913E0160913F0170913B
:10069000400189E495E00E94E10283EF96E09093A7
:1006A0003B0480933A040895CF92DF92EF92FF9239
:1006B0000E94F112C0908B03D0908C03E0908D03C8
:1006C000F0908E036C197D098E099F092091160107
:1006D00030E040E050E00E94F21C28393A434105E6
:1006E000510548F10E94F1126C197D098E099F098C
:1006F0002091160130E040E050E00E94F21C213BC6
:100700003E414440510538F50E94F1126C197D09B3
:100710008E099F092091160130E040E050E00E94D0
:10072000F21CBA01A901403B8EE1580784E068073A
:10073000710589F004C048E95AE360E070E0409335
:100740003D0150933E0160933F017093400189E465
:1007500095E00E94E1020E94F11260938B03709376
:100760008C0380938D0390938E038CEF93E0FF9026
:10077000EF90DF90CF900C94110281E090E00E9406
:10078000A01C80934501A82FB0E01F9628EE33E00F
:100790000E944D1DAB01BC01413B8EE1580784E036
:1007A0006807710520F040EB5EE164E070E0409383
:1007B000410150934201609343017093440189E4E5
:1007C00095E00E94E1028091450190E00F960E9421
:1007D000CF018BE694E00C941102A0914501A15049
:1007E000A0934501B0E01F9628EE33E00E944D1D16
:1007F000AB01BC01413B8EE1580784E068077105FD
:1008000020F040EB5EE164E070E0409341015093E2
:100810004201609343017093440189E495E00E9492
:10082000E1028091450190E00F960E94CF018CEF8C
:1008300093E00C941102A0914501AF5FA093450194
:10084000B0E01F9628EE33E00E944D1DAB01BC01C5
:10085000413B8EE1580784E06807710520F040EBCA
:100860005EE164E070E04093410150934201609387
:1008700043017093440189E495E00E94E102809174
:10088000450190E00F960E94CF0181E294E00C9424
:1008900011020F931F93CF93DF93FC01A3A1B4A187
:1008A0001097E9F1EC01158A168A178A108E038CCD
:1008B000F48DE02D309779F1888181FD2CC014965C
:1008C0000D911C9115971596DC93CE931497888102
:1008D000826088830995988180FB90F9988388814C
:1008E0008D7F8883EBA1FCA1158304830E94F11204
:1008F00009811A812B813C810D831E832F833887C8
:10090000DC01CB01801B910BA20BB30B89879A876B
:10091000AB87BC8704C0888181608883E7CFDF9183
:10092000CF911F910F9108951092A8038EE495E046
:1009300090933E0580933D0588EE96E19093CC031D
:100940008093CB0382E49AE09093F4048093F304C1
:100950008FEF94E00C944904CF92DF92EF92FF92D4
:100960000F931F93CF93DF9300D000D0CDB7DEB7A6
:100970008C016A017B010E944904C982DA82EB8200
:10098000FC82CD28CE28CF2829F089819A81AB819D
:10099000BC8105C0F80181819281A381B481F801F5
:1009A00085839683A783B0870E94F112F80161873F
:1009B0007287838794870F900F900F900F90DF912D
:1009C000CF911F910F91FF90EF90DF90CF900895FE
:1009D00080910C0190910D018093A9038093AA034B
:1009E0008093AB03019690930D0180930C018235A7
:1009F0009105ECF180910A0190910B010197909380
:100A00000B0180930A01181619065CF189E48093A2
:100A1000A9038093AA038093AB0340E452E46FE000
:100A200070E08EE695E00E94AC0440E452E46FE092
:100A300070E089E495E00E94AC0440E452E46FE089
:100A400070E084E295E00E94AC0440E452E46FE080
:100A500070E08FEF94E00E94AC0480E994E00E9483
:100A600011028AE490E090930D0180930C010895A7
:100A7000CF93C82F40E854E86EE170E08AED94E02F
:100A80000E94AC0440E057E863E973E085EB94E032
:100A90000E94AC04C093AE03CF910895CF93DF932F
:100AA00080E00E94E30140E0BC0180912801909128
:100AB00029010E94930181110EC083E00E94E3018D
:100AC00043E0BC0180912E0190912F010E9493017F
:100AD000882309F4A8C080E00E94E3012091280146
:100AE0003091290182179307C1F080E00E94E30151
:100AF00029E030E0DC010E944D1D2FEF33E040E0A3
:100B000050E00E94C01CDA01C9010196A11DB11D6F
:100B1000893008F088E08093140183E00E94E301AB
:100B200020912E0130912F018217930709F0F5C013
:100B30008091130190911401282F30E0285F3F4FDE
:100B4000291B3109309312012093110128303105FE
:100B500041F420910F013091100130931201209344
:100B600011012091110130911201283031050CF052
:100B7000EDC021E020930E01682F891708F4692F3A
:100B80006F5F981708F4892F681B60931501E09137
:100B90003E078DE0E89FF0011124EE52FE4F848560
:100BA000880F880F880F8093360188E0689FB00116
:100BB000112480ED92E00E94331D7093BF05609375
:100BC000BE050E949A0083E00E94E30143E0BC015D
:100BD00080912E0190912F010E9493018111C2C03A
:100BE00080E00E94E30140E0BC01809128019091E7
:100BF00029010E9493018111B0C080E00E94E301AD
:100C0000909329018093280183E00E94E30190934F
:100C10002F0180932E0180911101909112019093E8
:100C2000100180930F010E94D8110E94851085E069
:100C30000E94E301EC0145E0BC01809132019091FA
:100C400033010E9493018823D1F12CE030E0DE01D2
:100C50000E944D1D2FEF33E040E050E00E94C01C89
:100C60002C3018F420933E0703C08BE080933E079E
:100C7000E0913E078DE0E89FF0011124EE52FE4F17
:100C80008485880F880F880F809336016091150145
:100C900088E0689FB001112480ED92E00E94331D2E
:100CA0007093BF056093BE050E949A008091AE03C9
:100CB000833008F46CC0D0933301C093320186E0D6
:100CC0000E94E301EC0146E0BC0180913401909167
:100CD00035010E949301882309F465C02CE030E0BF
:100CE000DE010E944D1D2FEF33E040E050E00E94F6
:100CF000C01C2C3018F42093900303C08BE0809329
:100D000090030E949A008091AE03833008F445C09E
:100D1000D0933501C093340146C083E00E94E301C3
:100D200029E030E0DC010E944D1D2FEF33E040E070
:100D300050E00E94C01CDA01C9010196A11DB11D3D
:100D4000893008F088E080931301F2CE2830310515
:100D500009F412CF10920E010FCF8091AE038330B1
:100D600008F04BCF82E00E943805809114018093F7
:100D7000A903809113018093AB0380910E01882316
:100D800011F081E401C084E48093AA0336CF82E0AD
:100D90000E9438050E94C3018ECF82E00E94380570
:100DA0000E94C301B5CFDF91CF9108958091910347
:100DB000882351F080916F03843119F410926F03EE
:100DC00003C08F5F80936F0381E0809391038091D4
:100DD0006F0390E00E94CF0181E00E94380581E21C
:100DE00094E00C94110290918A0381E0892780930A
:100DF0008A03E3E0F1E09FEF919321E0EA30F2070C
:100E0000D9F78823A9F08CE28093A9038AE3809321
:100E1000AA0389E38093AB0384E00E94380586E04F
:100E200091E090933E0580933D0584E593E014C0E6
:100E30008CE38093A90383E38093AA038AE38093DE
:100E4000AB0384E00E9438058EE495E090933E0564
:100E500080933D0584E397E09093160480931504F6
:100E600081E294E00C94110280919103882349F06F
:100E700080916F03811102C084E101C08150809391
:100E80006F0381E08093910380916F0390E00E9453
:100E9000CF0181E00E9438058CEF93E00C941102A1
:100EA000E3E0F1E08FEF819391E0EA30F907D9F7C1
:100EB00060916F038AE1689FB0011124665F7F4FE4
:100EC0004AE150E080E793E00E94901C809170031B
:100ED00087FD8FE78093D00180917103882321F0F3
:100EE000813118F080E101C081E080931F01809181
:100EF00072038C3008F08BE080939003E0917303D1
:100F0000EC3008F0EBE0E0933E0780917403882317
:100F100021F0893018F088E001C081E0809314014D
:100F200080917503882321F0893018F088E001C092
:100F300081E08093130160917603662321F069308C
:100F400018F068E001C061E06093150180917703BB
:100F500080930E019DE0E99FF0011124EE52FE4FB7
:100F60008485880F880F880F8093360188E0689FFA
:100F7000B001112480ED92E00E94331D7093BF05F3
:100F80006093BE050E949A0080917803823110F42C
:100F900090E002C081E190E09093A2078093A107C6
:100FA00080917903823110F490E002C081E190E0F9
:100FB0009093A4078093A30780917A03823110F461
:100FC00090E002C081E190E09093A6078093A5078E
:100FD00080917B03823110F490E002C081E190E0C7
:100FE0009093A8078093A70780917C03823110F427
:100FF00090E002C081E190E09093AA078093A90756
:1010000080917D03823110F490E002C081E190E094
:101010009093AC078093AB0780917E03823110F4EC
:1010200090E002C081E190E09093AE078093AD071D
:101030008091830387FD02C090E002C08FE790E0BB
:101040009093AD038093AC038091840387FD02C02D
:1010500090E002C08FE790E09093210180932001FF
:1010600080917F0387FD8FE780931C01809180032F
:1010700087FD8FE780931D018091810387FD8FE7B6
:101080008093930381E090918203911101C080E0ED
:101090008093920340918603509187036091880367
:1010A0007091890348399AE359076105710560F029
:1010B000413B8EE1580784E06807710548F040EB3A
:1010C0005EE164E070E004C048E95AE360E070E08B
:1010D00040933D0150933E0160933F017093400166
:1010E00080918503882321F0893018F088E001C0C1
:1010F00081E08093AF03883041F0409141015091ED
:101100004201609143017091440189E495E00E949D
:10111000E10240911F016091920381E40E947E10E0
:1011200040911F016091930385E00E947E104091E1
:101130001F0160911C0187E00E947E1040911F01F9
:1011400060911D0181E00E947E108091AF03863086
:1011500019F40E943F0209C0883019F40E94290343
:1011600004C00E9494040E94F9028AE38093A903B8
:101170008EE28093AA0386E38093AB0383E00E9410
:1011800038058BE694E00C941102CF93C0916E0366
:10119000C130E1F018F0C23091F1BCC085E10E948D
:1011A0005D1220910201422F50E08417950761F0F3
:1011B000222319F01092020107C081E294E00E94FC
:1011C000490481E08093020181E016C085E00E941D
:1011D0005D1220910101422F50E08417950759F0CC
:1011E000222319F01092010106C08CEF93E00E94B7
:1011F0004904C093010182E080936E038BC084E1B7
:101200000E945D1220910001422F50E08417950743
:1012100009F44FC02223F9F02FB7F89480913307D7
:1012200090913407A0913507B09136072FBF809376
:101230006A0390936B03A0936C03B0936D038AEDE4
:1012400094E00E94110280916F0390E00E94CF0110
:10125000109200012EC02FB7F8948091330790911F
:101260003407A0913507B09136072FBF40916A032C
:1012700050916B0360916C0370916D03841B950B0F
:10128000A60BB70B813D9740A105B10518F086E488
:1012900094E002C08BE694E00E94490440E854E8E0
:1012A0006EE170E08AED94E00E94AC0481E08093EE
:1012B00000012FB7F8948091330790913407A091E3
:1012C0003507B09136072FBF40916A0350916B03E9
:1012D00060916C0370916D03841B950BA60BB70B8B
:1012E000813D9740A105B10528F084E10E945D127F
:1012F000892B19F010926E030DC08BE38093A90324
:101300008CE28093AA038EE38093AB0383E00E9478
:101310003805F0CFCF910895CF93DF93EC010E9471
:1013200011028BA19CA1009759F1EF8DF8A1A9A101
:10133000BAA1309799F4109749F4DC0111961C92E8
:101340001E9213961C921E9212971AC090961C928F
:101350001E925F97FC01B183A08312C0109741F4E5
:1013600012A211A2DC011396FC93EE93129708C00F
:10137000B2A3A1A3A9A1BAA19096FC93EE935F9703
:10138000DF91CF91089580E48093A9038093AA030D
:101390008093AB031092AE0385EB94E00C941102A2
:1013A00080E68093A9038093AA038093AB031092F5
:1013B000AE03109291038AED94E00C9411020F9306
:1013C0001F930E94F11200919403109195032091B4
:1013D000960330919703DC01CB01801B910BA20B8C
:1013E000B30B80939F039093A003A093A103B093AA
:1013F000A203E89886E193E190933A018093390142
:101400001F910F9108950E94F112609394037093BD
:101410009503809396039093970310929F031092E5
:10142000A0031092A1031092A2038FED99E0909374
:101430003A0180933901E9E6F0E080818C7F826097
:101440008083E89A40EA5FE060E070E087ED93E037
:101450000C94AC0483E09AE090933A0180933901B4
:10146000E9E6F0E0808183608083E89A61E084E0CF
:101470000E94861284E190E00197F1F760E084E039
:101480000C94861280913E0790E001960E94AA017A
:1014900080919003805E8093A9031092AE03109216
:1014A00091038AED94E00C94110286E00E94E3011E
:1014B00046E0BC0180913401909135010E94930176
:1014C0008823B9F086E00E94E3012FE730E0DC01D9
:1014D0000E944D1D2FEF33E040E050E00E94C01C01
:1014E00030931901209318018091AE03833008F4E2
:1014F0006FC085E00E94E30145E0BC0180913201AC
:10150000909133010E9493018823B9F085E00E94F5
:10151000E3012FE730E0DC010E944D1D2FEF33E0A7
:1015200040E050E00E94C01C3093CC012093CB01DE
:101530008091AE03833008F45CC00E94851083E084
:101540000E94E30143E0BC0180912E0190912F01A4
:101550000E9493018823B9F083E00E94E3012FE702
:1015600030E0DC010E944D1D2FEF33E040E050E001
:101570000E94C01C3093CF012093CE018091AE0316
:10158000833008F447C080E00E94E30140E0BC01E2
:1015900080912801909129010E9493018823B1F044
:1015A00080E00E94E3012FE730E0DC010E944D1D46
:1015B0002FEF33E040E050E00E94C01C30933D0725
:1015C00020933C078091AE038330A8F10C94D8118E
:1015D00082E00E94380580911801909119010E94C3
:1015E000CF0186E00E94E30190933501809334019E
:1015F00080CF82E00E9438058091CB019091CC0190
:101600000E94CF0185E00E94E30190933301809313
:10161000320193CF82E00E9438058091CE019091F3
:10162000CF010E94CF0183E00E94E30190932F013C
:1016300080932E01A8CF82E00E94380580913C075C
:1016400090913D070E94CF0180E00E94E3019093BA
:10165000290180932801BACF611571058105910593
:10166000B1F06D3A2DE072078105910584F46F3574
:1016700021E07207810591056CF0683B2BE0720751
:101680008105910554F4462F372F282F0AC040E0DA
:1016900030E005C04EE531E002C048EB3BE020E021
:1016A00090E0642F732F822F08958F929F92AF92B4
:1016B000BF92CF92DF92EF92FF920F931F93CF933F
:1016C000DF93E89886E193E190933A0180933901A2
:1016D00060919F037091A0038091A1039091A20358
:1016E0000E942C0B6093C7017093C8018093C901BD
:1016F0009093CA0120919D0330919E032F5F3F4F2D
:1017000030939E0320939D032430310509F06EC071
:10171000C091AE03C43008F479C064C080919303D3
:10172000882381F0109292031092930340911F013D
:1017300060E085E00E947E1040911F0160E081E43E
:101740000E947E10C0902401D09025018090C70196
:101750009090C801A090C901B090CA010D2C000C56
:10176000EE08FF08C814D904EA04FB0408F05BC0C3
:10177000A50194012C193D094E095F09A1E0BCEFB8
:101780000E94ED1C08EB1BE020E030E0A90198016D
:101790002C193D094E095F090E94C01CE9018928E6
:1017A0008A288B2809F069C080919C03803118F445
:1017B0008F5F80939C0380919C038F3099F488E520
:1017C0008093AB0380E48093AA038093A90381E014
:1017D0000E94380520911F0140E460E080EE90E017
:1017E0000E94141010929E0310929D0387ED93E0C7
:1017F000DF91CF911F910F91FF90EF90DF90CF90ED
:10180000BF90AF909F908F900C941102E091AF0326
:101810000E2F10E0F8013197E830F10518F7EC5C75
:10182000FF4F0C94471DC0902201D09023010D2C36
:10183000000CEE08FF088C149D04AE04BF04D0F425
:10184000A1E0BCEFA50194012E5531404109510999
:101850000E94ED1CA70196012E5531404109510906
:101860000E94C01CDA01C90181509C4FAF4FBF4F8D
:10187000EC0195CFC0E0D0E092CF80919A03909197
:101880009B038C179D0709F4ADCF1C161D063CF574
:101890009E01C11584E0D80714F02FEF33E0C90191
:1018A000330FAA0BBB0B9C01AD012F5F33404109E5
:1018B0005109ABEFBFEF0E94ED1C21E03CEF4FEF71
:1018C0005FEF0E94C01CDA01C901835A9F4FAF4FDE
:1018D000BF4FCF3F23E0D207B9F521E030C02097BA
:1018E00091F1C1308CEFD8075CF09E011C161D06EB
:1018F00014F420E030E0C901330FAA0BBB0B04C085
:1019000081E09CEFAFEFBFEF9C01AD0121503C4F58
:101910004F4F5F4FA5E0B0E00E94DF1C2FEF33E098
:1019200040E050E00E94C01CDA01C9018D5A9F4F6F
:10193000AF4FBF4FC1302CEFD20731F42FEF280F3C
:1019400020931E0103C088E580931E0180911E0133
:101950008093AB0380E48093AA038093A90381E082
:101960000E943805D0939B03C0939A03BE0193E075
:10197000660F771F9A95E1F7705EAB01440F452F14
:10198000441F550B51954F776F7720911F0180EEC3
:1019900090E00E94141010929C0324CF61157105F1
:1019A0008105910509F41ECF2091AC033091AD0360
:1019B0006901330FEE08FF082091200130912101C9
:1019C0008901330F220B330BA90198012C193D0912
:1019D0004E095F096E557140810991090E94231DCE
:1019E0002AE53AE040E050E00E94C01CDA01C9015B
:1019F0008C0D9D1DAE1DBF1D80931D01209199036F
:101A0000281709F4EFCE90E00E94CF0181E00E94F8
:101A1000380540911F0160911D0181E00E947E10F8
:101A200080911D0180939903DDCE611571058105BB
:101A3000910509F4D7CEC090AC03D090AD030D2C26
:101A4000000CEE08FF08209120013091210189014E
:101A5000330F220B330BA90198012C193D094E09B4
:101A60005F096E557140810991090E94231D2AE585
:101A70003AE040E050E00E94C01CDA01C9018C0D40
:101A80009D1DAE1DBF1D8093D00190E00E94CF012F
:101A900081E00E943805A6CE61157105810591058A
:101AA00009F4A0CE2091AC033091AD036901330F4E
:101AB000EE08FF0820912001309121018901330FA8
:101AC000220B330BA90198012C193D094E095F091E
:101AD0006E557140810991090E94231D2AE53AE063
:101AE00040E050E00E94C01CDA01C9018C0D9D1D30
:101AF000AE1DBF1D80931C0120911B01281709F406
:101B000071CE90E00E94CF0181E00E9438054091A3
:101B10001F0160911C0187E00E947E1080911C01D2
:101B200080931B015FCE611571058105910509F454
:101B300059CE2091AC033091AD036901330FEE080B
:101B4000FF0820912001309121018901330F220BE0
:101B5000330BA90198012C193D094E095F096E55F7
:101B60007140810991090E94231D2AE53AE040E075
:101B700050E00E94C01CDA01C9018C0D9D1DAE1DF4
:101B8000BF1D8093930320919803281709F42ACE50
:101B900090E00E94CF0181E00E94380540911F0132
:101BA0006091930385E00E947E10809193038111E0
:101BB0000CC040911F0160E081E40E947E10809182
:101BC0009203882331F01092920380919203811145
:101BD0000DC080919303882349F040911F016FE766
:101BE00081E40E947E1081E08093920380919303B0
:101BF00080939803F7CD611571058105910509F46E
:101C0000F1CDC090AC03D090AD030D2C000CEE08CC
:101C1000FF0820912001309121018901330F220B0F
:101C2000330BA90198012C193D094E095F096E5526
:101C30007140810991090E94231D2AE53AE040E0A4
:101C400050E00E94C01CC20ED31EE41EF51E8091FF
:101C50001A018C1549F0C23038F48C2D90E00E94A6
:101C6000CF0180E00E94380540911F016C2D8091CA
:101C700018010E947E10C0921A01B4CD6115710541
:101C80008105910509F4AECD9B01AC012E55314083
:101C900041095109AFE7B0E00E94DF1C673A25EF28
:101CA00072072FEF8207920784F061152DE2720709
:101CB00025E0820791056CF42AE53AE040E050E027
:101CC0000E94C01C69017A0109C0C12CD12C760187
:101CD00005C08FE7C82ED12CE12CF12C8091170183
:101CE00090E0A0E0B0E08C159D05AE05BF0509F4BD
:101CF00079CDC23008F076CD81E6C816D104E10472
:101D0000F10448F081E08093D10183E090E00E94EB
:101D1000CF0183E00EC021E4C216D104E104F10436
:101D200058F081E08093D10184E090E00E94CF01DF
:101D300084E08093160115C081E2C816D104E10445
:101D4000F10430F082E08093D10182E090E0EECFA8
:101D5000C4E0C093D10181E090E00E94CF01C09324
:101D6000160180E00E943805C09217013BCDCF924A
:101D7000DF92EF92FF920F931F93CF93DF938C012B
:101D8000EB01880F991F9C01285D3E4F7901F901F5
:101D9000C080D180802F0E94E301402FB6010E94B5
:101DA0009301882309F4AFC0802F0E94E301F7015B
:101DB0009183808380913E07883028F5802F0E9490
:101DC000E30121E130E0DC010E944D1D2FEF33E003
:101DD00040E050E00E94C01CCC0FDD1FC156D84F20
:101DE000888199818217930709F48DC039832883EC
:101DF000F901E45EFC4F80818093A903828980937E
:101E0000AA0384A173C08A3028F5802F0E94E301C1
:101E10002DE030E0DC010E944D1D2FEF33E040E06B
:101E200050E00E94C01CCC0FDD1FC156D84F8881E6
:101E300099818217930709F466C039832883F901D1
:101E4000EE50FD4F80818093A90386858093AA037D
:101E5000848D4CC08A3029F5802F0E94E3012FE049
:101E600030E0DC010E944D1D2FEF33E040E050E0F8
:101E70000E94C01CCC0FDD1FC156D84F88819981AC
:101E80008217930709F43FC039832883F901EE5381
:101E9000FD4F80818093A90380898093AA0380A14C
:101EA00025C08B3081F5802F0E94E3012BE130E0CB
:101EB000DC010E944D1D2FEF33E040E050E00E9416
:101EC000C01CCC0FDD1FC156D84F88819981821765
:101ED0009307C9F039832883F901E259FD4F8081C6
:101EE0008093A903848D8093AA0380AD8093AB0374
:101EF00081E0DF91CF911F910F91FF90EF90DF90E4
:101F0000CF900C943805DF91CF911F910F91FF90E6
:101F1000EF90DF90CF900895843081F028F48230E4
:101F200099F08330A1F008958830A9F08930B9F094
:101F30008530D1F4809180008F7D03C08091800036
:101F40008F7780938000089584B58F7702C084B521
:101F50008F7D84BD08958091B0008F7703C08091FC
:101F6000B0008F7D8093B00008950F931F93CF939F
:101F7000DF93EC01890188818E7F888388818D7F42
:101F8000888319861A861B861C861D821E821F82E4
:101F9000188619821A821B821C8218A21F8E1AA20E
:101FA00019A21CA21BA21D8A1E8A1F8A188ECE018E
:101FB0000E94E1028FEF9FEFDC018D879E87AF8744
:101FC000B88B898B9A8BAB8BBC8B1A8F098F1C8E2D
:101FD0001B8E1E8E1D8E8BA19CA1885B9540F9F0F7
:101FE00088EB95E09CA38BA38091B8059091B905EF
:101FF000892B39F4D093B905C093B80518A21F8E68
:1020000008C0E091BA05F091BB05F8A3EF8FD2A309
:10201000C1A31AA219A2D093BB05C093BA05DF9140
:10202000CF911F910F9108950F931F93CF93DF933B
:102030002150203108F05DC0803891050CF459C062
:10204000813E91057CF5142F062FEC0180919A06B4
:1020500090919B066C2F622BDC01ED91FC9101901D
:10206000F081E02D099580919A0690919B06602F52
:102070006F77DC01ED91FC910190F081E02D0995E5
:10208000CE018F7E803C9105A1F180919A069091BE
:102090009B06612F6F77DC01ED91FC910190F0813F
:1020A000E02D22C09C01285F31092830310508F558
:1020B0008D3F910538F48A3F910550F4883F910592
:1020C000C1F406C09C012E5F31092230310588F42D
:1020D000A0919A06B0919B06ED91FC911197019009
:1020E000F081E02D682FCD01DF91CF911F910F91ED
:1020F0000994DF91CF911F910F910895242F462FBE
:10210000682F80EB90E00C941410CF93DF9381E064
:102110000E94E301C0912A01D0912B0141E0BC0152
:10212000CE010E949301882309F483C08091AF03FC
:10213000813021F0873009F47CC04BC081E00E94DF
:10214000E3012FE730E0DC010E944D1D2FEF33E06B
:1021500040E050E00E94C01C3093270120932601EC
:1021600081E00E94E30141E0BC01CE010E949301A5
:10217000882309F45EC08091AE03833008F059C013
:1021800082E00E943805C0912601D0912701CE013E
:102190000E94CF0181E00E94E30190932B01809384
:1021A0002A01CE0187559E4F880F991F880F991FCE
:1021B000909325018093240189EA91E08C1B9D0B6B
:1021C000880F991F880F991F9093230180932201F4
:1021D00030C081E00E94E30141E0BC01CE010E94D9
:1021E0009301882331F18091AE03833010F581E0B3
:1021F0000E94E3012FE730E0DC010E944D1D2FEF2C
:1022000033E040E050E00E94C01C3093AD032093C7
:10221000AC0382E00E9438058091AC039091AD033D
:102220000E94CF0181E00E94E30190932B018093F3
:102230002A0182E00E94E301C0912C01D0912D017E
:1022400042E0BC01CE010E949301882309F4ADC095
:102250008091AF03813021F0873009F444C049C038
:1022600082E00E94E3012DE030E0DC010E944D1D80
:102270002FEF33E040E050E00E94C01C2D303105CC
:102280002CF4309321012093200106C08CE090E0D3
:10229000909321018093200182E00E94E30142E0BB
:1022A000BC01CE010E9493018823A1F08091AE036E
:1022B000833080F482E00E94380580912001909163
:1022C00021010E94CF0182E00E94E30190932D0141
:1022D00080932C0140911F016091200184E1DF91E6
:1022E000CF910C947E108091AE03823008F05DC0D7
:1022F00032C082E00E94E3012FE730E0DC010E945F
:102300004D1D2FEF33E040E050E00E94C01C3093A1
:1023100021012093200182E00E94E30142E0BC0100
:10232000CE010E949301882309F43FC08091AE033F
:102330008330D8F582E00E94380580912001909189
:1023400021010E94CF0182E00E94E30190932D01C0
:1023500080932C012AC082E00E94E301092E000C28
:10236000AA0BBB0BBC01CD0124E0660F771F881FB1
:10237000991F2A95D1F72FEF33E040E050E00E94FB
:10238000C01CDA01C9010196A11DB11D813108F0FF
:1023900080E180931F0181E00E94380580911F0138
:1023A00090E0DF91CF910C94CF01DF91CF91089510
:1023B0000F931F93CF93DF9384E00E94E301EC011E
:1023C000009130011091310144E0BC01C8010E942C
:1023D0009301882309F465C0CE010D2E000CAA0BD1
:1023E000BB0BBC01CD0123E0660F771F881F991F2F
:1023F0002A95D1F72FEF33E040E050E00E94C01C57
:10240000DA01C9010196A11DB11D893008F088E0EB
:102410008093AF038091AE038430C8F41016110688
:10242000B4F483E00E94380580E48093AB0380938A
:10243000AA038091AF038093A9038FEF9FEF90933E
:102440002B0180932A0190932D0180932C01809180
:10245000AF03863031F48091A803811102C00E943D
:102460003F028091AF03863029F08091A80381114B
:102470000E9494048091AF03883031F48091A703C7
:10248000811102C00E9429038091AF03883029F096
:102490008091A70381110E94F902D0933101C0936A
:1024A0003001DF91CF911F910F910895242F462F76
:1024B000682F80E990E00C941410CF93DF93282FBD
:1024C00030E0F901EC53FF4F8491F901E355FF4FE0
:1024D000D491F901EA56FF4FC491CC2391F08111B8
:1024E0000E948C0FEC2FF0E0EE0FFF1FE457FF4F20
:1024F000A591B491EC91ED2381E090E021F480E08E
:1025000002C080E090E0DF91CF9108951F93CF93B8
:10251000DF93282F30E0F901EC53FF4F8491F9014C
:10252000E355FF4FD491F901EA56FF4FC491CC23F4
:10253000C1F0162F81110E948C0FEC2FF0E0EE0FEE
:10254000FF1FEE57FF4FA591B4919FB7F89411115B
:1025500004C08C91D095D82302C0EC91DE2BDC9383
:102560009FBFDF91CF911F910895CF93DF9390E0AC
:10257000FC01E355FF4F2491FC01EA56FF4F849183
:10258000882361F190E0880F991FFC01E858FF4F04
:10259000C591D491FC01EE57FF4FA591B491611103
:1025A00009C09FB7F8948881209582238883EC9195
:1025B0002E230BC0623061F49FB7F8948881322FCC
:1025C000309583238883EC912E2B2C939FBF06C0DC
:1025D0008FB7F894E8812E2B28838FBFDF91CF919E
:1025E00008953FB7F8948091A3039091A403A0911C
:1025F000A503B091A60326B5A89B05C02F3F19F0EF
:102600000196A11DB11D3FBFBA2FA92F982F882772
:10261000820F911DA11DB11DBC01CD0143E0660FCC
:10262000771F881F991F4A95D1F708950895CF9273
:10263000DF92EF92FF920F931F93CF93DF936C0182
:102640007A018B01C0E0D0E0CE15DF0581F0D80122
:102650006D918D01D601ED91FC910190F081E02DFD
:10266000C6010995892B11F02196EECF7E01C70195
:10267000DF91CF911F910F91FF90EF90DF90CF905E
:102680000895FC01918D828D981761F0828DDF0194
:10269000A80FB11D5D968C91928D9F5F9F73928F55
:1026A00090E008958FEF9FEF0895FC01918D828D4A
:1026B000981731F0828DE80FF11D858D90E0089517
:1026C0008FEF9FEF0895FC01918D228D892F90E06F
:1026D000805C9F4F821B91098F739927089589ED24
:1026E00095E00E94631321E0892B09F420E0822FFA
:1026F0000895FC01848DDF01A80FB11DA35ABF4FBF
:102700002C91848D90E001968F739927848FA689F0
:10271000B7892C93A089B1898C9180648C93938D17
:10272000848D981306C00288F389E02D80818F7D07
:1027300080830895EF92FF920F931F93CF93DF93BF
:10274000EC0181E0888F9B8D8C8D981305C0E88902
:10275000F989808185FD24C0F62E0B8D10E00F5F76
:102760001F4F0F731127E02E8C8DE8120CC00FB68F
:1027700007FCFACFE889F989808185FFF5CFCE0182
:102780000E947913F1CF8B8DFE01E80FF11DE35A02
:10279000FF4FF0820B8FEA89FB898081806207C03E
:1027A000EE89FF896083E889F9898081806480836C
:1027B00081E090E0DF91CF911F910F91FF90EF901A
:1027C0000895CF93DF93EC01888D8823C9F0EA89BF
:1027D000FB89808185FD05C0A889B9898C9186FD1A
:1027E0000FC00FB607FCF5CF808185FFF2CFA88917
:1027F000B9898C9185FFEDCFCE010E947913E7CF87
:10280000DF91CF91089580E090E0892B29F00E941C
:102810006F1381110C94000008950E94681D1F928F
:102820000F920FB60F9211242F933F938F939F9384
:10283000AF93BF938091330790913407A0913507F0
:10284000B091360730913B0726E0230F2D3720F457
:102850000296A11DB11D05C029E8230F0396A11DF5
:10286000B11D20933B078093330790933407A093C7
:102870003507B09336078091A3039091A403A091EC
:10288000A503B091A6030196A11DB11D8093A303DA
:102890009093A403A093A503B093A603BF91AF9117
:1028A0009F918F913F912F910F900FBE0F901F908E
:1028B00018951F920F920FB60F9211242F933F93EA
:1028C0004F935F936F937F938F939F93AF93BF9338
:1028D000EF93FF93E0913B01F0913C010995FF914B
:1028E000EF91BF91AF919F918F917F916F915F9188
:1028F0004F913F912F910F900FBE0F901F90189501
:102900001F920F920FB60F9211242F933F934F9364
:102910005F936F937F938F939F93AF93BF93EF9347
:10292000FF93E0913901F0913A010995FF91EF9100
:10293000BF91AF919F918F917F916F915F914F91D7
:102940003F912F910F900FBE0F901F9018951F92DF
:102950000F920FB60F9211242F933F934F935F93D3
:102960006F937F938F939F93AF93BF93EF93FF9357
:1029700089ED95E00E947913FF91EF91BF91AF919E
:102980009F918F917F916F915F914F913F912F9187
:102990000F900FBE0F901F9018951F920F920FB6B9
:1029A0000F9211242F938F939F93EF93FF93E091B6
:1029B000E905F091EA058081E091EF05F091F005DD
:1029C00082FD12C090818091F2058F5F8F732091FC
:1029D000F305821751F0E091F205F0E0E752FA4F6B
:1029E000958F8093F20501C08081FF91EF919F91B7
:1029F0008F912F910F900FBE0F901F9018954F92AF
:102A00005F926F927F928F929F92AF92BF92CF927E
:102A1000DF92EF92FF920F931F93CF93DF9300D03B
:102A200000D000D0CDB7DEB72B013C01809137013B
:102A3000282F30E040E050E029833A834B835C83C9
:102A40000091310710913207C0903801D12CE12C50
:102A5000F12CC21AD30AE40AF50A8090BE059090C0
:102A6000BF05092C000CAA08BB0898012F5F3F4F37
:102A7000032E000C440B550B89819A81AB81BC81DC
:102A8000281B390B4A0B5B0BAAE5BAE00E94DF1C3E
:102A9000A70196010E94C01CDA01C901825A9E4F0B
:102AA000AF4FBF4F880D991DAA1DBB1D84159505FD
:102AB000A605B7050CF444C0A801110F660B770BEF
:102AC0009A01AB0189819A81AB81BC81281B390BAA
:102AD0004A0B5B0BAAE5BAE00E94DF1CA701960136
:102AE0000E94C01CDA01C901825A9E4FAF4FBF4FEE
:102AF00088199909AA09BB09481659066A067B066E
:102B0000FCF06091370770913807809139079091F8
:102B10003A0726960FB6F894DEBF0FBECDBFDF9101
:102B2000CF911F910F91FF90EF90DF90CF90BF90CA
:102B3000AF909F908F907F906F905F904F9008958F
:102B400040923707509238076092390770923A07DF
:102B5000D8CF4F925F926F927F928F929F92AF9257
:102B6000BF92CF92DF92EF92FF921F93CF93DF93AA
:102B700000D000D000D0CDB7DEB7E99886E193E170
:102B800090933C0180933B016091C1077091C20713
:102B90008091C3079091C4070E942C0B0E94FF14E0
:102BA0006B017C018091BF079091C00701969093C3
:102BB000C0078093BF072091D10130E082179307AF
:102BC0000CF4EDC0D701C6018E559140A109B109A1
:102BD00089839A83AB83BC839AE5492E9AE0592E68
:102BE000612C712C11E0C114D104E104F104E9F469
:102BF0008091BE078F5F8093BE079091BD079111B2
:102C00004DC0823030F48091A1079091A207892BAA
:102C100049F440911F0160E08091BC070E94561268
:102C20001092BB071092BE0739C0909138019E8365
:102C3000A0913701AD838A2E912CA12CB12C892F24
:102C400090E0A0E0B0E0BC01CD01681979098A09E3
:102C50009B0929813A814B815C810E94231DA3013C
:102C600092010E94C01CBA01A901480D591D6A1D9C
:102C70007B1D942F8E81BD81B81708F48B2F981778
:102C800048F02E813D81231708F43E838E819817EA
:102C900008F4842F8093BA071093BB078091BB0779
:102CA000882309F478C08091BD07811117C0E09195
:102CB000BA07F0E0E15CF84F80818093B90740915A
:102CC0001F0160E08091BC070E94561240911F01D5
:102CD0006091D0018091B9070E945612E091BD0722
:102CE000EE2309F44AC0F0E0EE0FFF1FE156F84F63
:102CF000808191818130910541F082309105E9F127
:102D0000009749F41092BD076ECF40911F0160E01B
:102D10008091BC0730C030913E072091BA07815C9A
:102D2000984F3A3079F038F4383088F0820F911D9E
:102D3000FC01389710C03B3051F4820F911DFC010B
:102D40003F9709C0820F911DFC01399704C0820F83
:102D5000911DFC013A9780818093B90740911F0132
:102D600060E08091BC070E94561240911F01609163
:102D7000D0018091B9070E9456128091B9078093C3
:102D8000BC078091BD078F5F883018F48093BD0722
:102D900002C01092BD071092C0071092BF0782EBCD
:102DA00093E026960FB6F894DEBF0FBECDBFDF913D
:102DB000CF911F91FF90EF90DF90CF90BF90AF9099
:102DC0009F908F907F906F905F904F900C94110226
:102DD000CF92DF92EF92FF92CF93DF93E99886E153
:102DE00093E190933C0180933B016091C107709106
:102DF000C2078091C3079091C4070E942C0B0E94C8
:102E0000FF142091B7073091B8072F5F3F4F3093E1
:102E1000B8072093B7072430310509F092C0611537
:102E200071058105910519F586EF9FEF90933207A3
:102E3000809331078091B607863018F48F5F8093B6
:102E4000B6078091B607863008F477C08091B50741
:102E5000882309F472C040911F0160E08091B4079B
:102E60000E9456121092B6071092B50766C01092D3
:102E7000B607D0913801C0913701CC2ED12CE12C6E
:102E8000F12C9B01AC012E553140410951098D2F88
:102E900090E0A0E0B0E0BC01CD016C197D098E0985
:102EA0009F090E94231D2AE53AE040E050E00E947D
:102EB000C01CC20ED31EE41EF51E9C2D8D2FCD17F7
:102EC00008F48C2F981738F08D2FDC1708F48C2F0E
:102ED000981708F48C2D90E0909332078093310777
:102EE000FC01E15CF84F80818093B3079091B507B6
:102EF00091110AC091E09093B50740911F01609134
:102F0000D0010E94561215C09091B4078917A9F0FC
:102F100040911F0160E0892F0E94561240911F01CD
:102F20006091D0018091B3070E94561281E0809396
:102F3000B5078091B3078093B4071092B807109239
:102F4000B70782EB93E0DF91CF91FF90EF90DF9096
:102F5000CF900C941102CF92DF92EF92FF920F93D9
:102F60001F93CF93E99886E193E190933C0180937E
:102F70003B016091C1077091C2078091C307909196
:102F8000C4070E942C0BC091AE03C43008F045C0AA
:102F900016161706180619060CF03FC0C0903C071D
:102FA000D0903D070D2C000CEE08FF082091CE01BB
:102FB0003091CF018901330F220B330BA901980106
:102FC0002C193D094E095F096E557140810991091F
:102FD0000E94231D2AE53AE040E050E00E94C01C18
:102FE000C20ED31EE41EF51E8091CD018C1120C0AF
:102FF00040911F016C2D8091CB010E947E10C092E8
:10300000CD018091C7019091C801A091C901B091F3
:10301000CA01892B8A2B8B2BA9F482EB93E0CF91E9
:103020001F910F91FF90EF90DF90CF900C941102C1
:10303000C230F0F68C2D90E00E94CF0180E00E941B
:103040003805D6CF8091AE03833038F78FE5809373
:10305000A90380E68093AA0381E68093AB0381E015
:103060000E943805DACF0F931F93E99886E193E128
:1030700090933C0180933B010E94F1120091AF07B5
:103080001091B0072091B1073091B207DC01CB015C
:10309000801B910BA20BB30B8093C1079093C207C7
:1030A000A093C307B093C4071F910F9108950E9486
:1030B000F1126093AF077093B0078093B1079093BC
:1030C000B2071092C1071092C2071092C307109264
:1030D000C40783E398E190933C0180933B01E9E6C8
:1030E000F0E08081837F88608083E99A40EA5FE036
:1030F00060E070E082EB93E00C94AC0487E598E12B
:1031000090933C0180933B01E9E6F0E080818C6084
:103110008083E99A61E089E00E94861284E190E070
:103120000197F1F760E089E00C9486121092DC05BB
:103130001092DB0588EE93E0A0E0B0E08093DD051F
:103140009093DE05A093DF05B093E00586E593E05C
:103150009093DA058093D90585EC90E09093E6058D
:103160008093E50584EC90E09093E8058093E70573
:1031700080EC90E09093EA058093E90581EC90E083
:103180009093EC058093EB0582EC90E09093EE0534
:103190008093ED0586EC90E09093F0058093EF0529
:1031A0001092F2051092F3051092F4051092F505B5
:1031B00084E690E09093B1038093B00389ED95E0AD
:1031C00090939B0680939A0610929C0610929D06FF
:1031D00010929E061092A3061092A2061092A506C7
:1031E0001092A4068FEF9FEF9093A7068093A606F8
:1031F0009093A9068093A80683E08093AA06109274
:10320000AB061092AD061092AC061092AE0610926C
:10321000AF061092300780E8E0EBF6E0DF011D9288
:103220008A95E9F710927706109276061092790641
:103230001092780610927B0610927A0610927D0604
:1032400010927C0610927F0610927E0610928106E4
:1032500010928006109283061092820610928506C4
:1032600010928406109287061092860610928906A4
:103270001092880610928B0610928A0610928D0684
:1032800010928C0610928F0610928E061092910664
:103290001092900610929306109292061092950644
:1032A0001092940610929706109296061092990624
:1032B0001092980686E08093D10584E08093D20531
:1032C00082E08093D3051092D40587E08093D505E2
:1032D00085E08093D60583E08093D70581E08093D5
:1032E000D805E1EDF5E0A0ECB5E089ED95E02191A0
:1032F0002D938E179F07D9F76091360170E080ED0E
:1033000092E00E94331D7093BF056093BE0510923A
:10331000B9051092B8051092BB051092BA0510922B
:10332000BD051092BC0524E631E048EE53E060E0B4
:1033300070E083E995E00E94B50F2AE23AE048E99F
:103340005AE360E070E08EE695E00E94B50F2EE74C
:1033500038E148EA51E660E070E089E495E00E94D7
:10336000B50F2EE435E040E25EE460E070E084E218
:1033700095E00E94B50F25EC38E040E25EE460E0A5
:1033800070E08FEF94E00E94B50F22E43AE040E055
:1033900050E0BA018AED94E00E94B50F23EC39E0C9
:1033A00040E050E0BA0185EB94E00E94B50F28EEB2
:1033B00034E048EC5FEA60E070E080E994E00E946D
:1033C000B50F20E537E040E050E0BA018BE694E02D
:1033D0000E94B50F28E532E040E050E0BA0186E4F3
:1033E00094E00E94B50F26ED36E040E050E0BA01CF
:1033F00081E294E00E94B50F24E337E040E050E022
:10340000BA018CEF93E00E94B50F25E53BE040E068
:1034100050E0BA0187ED93E00E94B50F28EE36E147
:1034200040E050E0BA0182EB93E00C94B50F789441
:1034300084B5826084BD84B5816084BD85B58260B9
:1034400085BD85B5816085BD80916E00816080936A
:103450006E001092810080918100826080938100D3
:1034600080918100816080938100809180008160E3
:10347000809380008091B10084608093B10080913E
:10348000B00081608093B00080917A008460809366
:103490007A0080917A00826080937A0080917A002D
:1034A0008E7F80937A0080917A00806880937A0082
:1034B0001092C100E091E905F091EA0582E0808375
:1034C000E091E505F091E6051082E091E705F091C5
:1034D000E8058FE180831092F105E091ED05F09110
:1034E000EE0586E08083E091EB05F091EC058081AC
:1034F00080618083E091EB05F091EC05808188602C
:103500008083E091EB05F091EC05808180688083F9
:10351000E091EB05F091EC0580818F7D808361E087
:1035200089E00E94B51260E083E00E94B51261E07C
:1035300084E00E94B51260E082E00E94B51261E072
:1035400086E00E94B51261E087E00E94B51261E05A
:1035500088E00E94B51260E083E10E94B51261E04C
:103560008EE00E94B51261E08FE00E94B51261E02A
:103570008AE00E94B51261E082E10E94B51261E02A
:1035800081E10E94B51261E080E10E94B51262E023
:1035900085E00E94B51262E085E10E94B51262E00A
:1035A00084E10E94B51280919A0690919B06DC01FD
:1035B000ED91FC910190F081E02D60EF09958091F3
:1035C0009A0690919B06DC01ED91FC910190F081AF
:1035D000E02D60E0099580919A0690919B06DC01B0
:1035E000ED91FC910190F081E02D60E009958091D2
:1035F0009A0690919B06DC01ED91FC910190F0817F
:10360000E02D67EF09958091D005A7E4B1E0C7EC04
:10361000D1E0C12CD12C7601C394CA17DB0799F1F4
:103620006C9100EC15E027E030E070E0F80191913A
:103630008F01E92FF0E0E054FA4FAB01022E02C0F7
:10364000559547950A94E2F741704087215031091A
:1036500068F7E8ECF5E027E030E09191B701A601CA
:10366000022E04C0440F551F661F771F0A94D2F71D
:10367000992311F0842B02C04095842321503109F5
:1036800060F78D93CACF8093D005C0E08C2F0E9445
:10369000E3010A9714F010924601CF5FC730B1F7EB
:1036A00081E090E00E94A01C80934501A82FB0E02B
:1036B0001F9628EE33E00E944D1DAB01BC01413B3B
:1036C000AEE15A07A4E06A07710520F040EB5EE125
:1036D00064E070E0409341015093420160934301E4
:1036E0007093440140933D0150933E0160933F012C
:1036F0007093400189E495E00E94E10280914601C7
:10370000882309F44DC083E18093A90381E180936C
:10371000AA0389E08093AB0384E00E94380540EA65
:1037200056E861E070E083E995E00E94AC0440E473
:1037300052E46FE070E08EE695E00E94AC0440E455
:1037400052E46FE070E089E495E00E94AC0440E44C
:1037500052E46FE070E084E295E00E94AC048BE1FB
:1037600094E090933B0480933A048DEE93E0909321
:1037700016048093150484ED92E090936004809386
:103780005F048DEB93E0909385048093840440E480
:1037900052E46FE070E08FEF94E00E94AC040AC046
:1037A0000E94C30983E995E00E94490480E994E0FE
:1037B0000E9449048091B8059091B9059093BD0588
:1037C0008093BC058091BC059091BD05009709F4DC
:1037D0006CC0FC01208120FF61C04585568567854E
:1037E0007089452B462B472B19F40E94110256C0B5
:1037F0000E94F112E091BC05F091BD05818092809C
:10380000A380B480C184D284E384F48405811681CA
:1038100027813085DC01CB018C199D09AE09BF09D8
:1038200080179107A207B307C8F185859685A785FC
:10383000B089181619061A061B065CF4858596854C
:10384000A785B0890197A109B10985879687A787C0
:10385000B08B85899689A789B08D0196A11DB11D70
:10386000858B968BA78BB08F05811681278130853C
:1038700081859285A385B485800F911FA21FB31FF8
:1038800081879287A387B48785829682A782B08634
:10389000018CF28DE02D309709F00995E091BC057F
:1038A000F091BD0581A192A189CF0E94031482CF1E
:1038B00082EB93E00E948C0987ED93E00E948C09D3
:1038C0008CEF93E00E948C0981E294E00E948C09C5
:1038D00086E494E00E948C098BE694E00E948C09B7
:1038E00080E994E00E948C0985EB94E00E948C09A9
:1038F0008AED94E00E948C098FEF94E00E948C097D
:1039000084E295E00E948C0989E495E00E948C098C
:103910008EE695E00E948C0983E995E00C948C0971
:10392000DC01CB01FC01F999FECF06C0F2BDE1BD7F
:10393000F89A319600B40D9241505040B8F708956E
:10394000F999FECF92BD81BDF89A992780B5089567
:10395000DC01CB0103C02D910E94B31C41505040AB
:10396000D0F70895262FF999FECF1FBA92BD81BDD9
:1039700020BD0FB6F894FA9AF99A0FBE01960895F1
:10398000052E97FB1EF400940E94D71C57FD07D00C
:103990000E94F21C07FC03D04EF40C94D71C5095E7
:1039A0004095309521953F4F4F4F5F4F089590952B
:1039B0008095709561957F4F8F4F9F4F08950E941E
:1039C000141DA59F900DB49F900DA49F800D911D77
:1039D00011240895B7FF0C94DF1C0E94DF1C821B8A
:1039E000930B0895A1E21A2EAA1BBB1BFD010DC06B
:1039F000AA1FBB1FEE1FFF1FA217B307E407F5079F
:103A000020F0A21BB30BE40BF50B661F771F881F7A
:103A1000991F1A9469F760957095809590959B0110
:103A2000AC01BD01CF010895A29FB001B39FC001B9
:103A3000A39F700D811D1124911DB29F700D811DDA
:103A40001124911D0895DB018F939F930E94DF1C29
:103A5000BF91AF91A29F800D911DA39F900DB29F2A
:103A6000900D1124089597FB072E16F4009407D0AB
:103A700077FD09D00E94541D07FC05D03EF49095B7
:103A800081959F4F0895709561957F4F0895EE0F32
:103A9000FF1F0590F491E02D09940E94141DB7FFBB
:103AA0000895821B930B0895AA1BBB1B51E107C00D
:103AB000AA1FBB1FA617B70710F0A61BB70B881FBE
:103AC000991F5A95A9F780959095BC01CD0108954D
:103AD00081E090E0F8940C946D1D10E0CFE6D0E00A
:103AE00004C0FE010E94471D2196C037D107C9F7C7
:043AF000F894FFCF78
:103AF4000101010303030303030303004A0001015B
:103B040000010004050204FF5500FF7F7F7F1D01B3
:103B14007F00A406A4060A00FBFFFBFFFBFFFBFFDC
:103B2400FBFFFBFFFBFF0F010816130000983A0090
:103B340000983A00000F01FC60DAF266B6BEE0FEBF
:103B4400E6EE3E9C7A9E8EFD61DBF367B7BFE1FF34
:103B5400E7EF3F9D7B9F8F9C9D7A7B9E8E8FBEBFA0
:103B6400EEEF3EEE3E9C7A9E8EBE6E0C781C2A3A98
:103B7400CE0AB61E7C38760080402010080402016C
:103B8400FF7FBFDFEFF7FBFDFEFDFCDC9C1C181084
:103B94003070F0F4FCFD0E02620000000000000032
:103BA4000000000000000000000000000000000011
:103BB400000000000000005E0100005600FF7F00CE
:103BC4007F04020201020202010000000000070259
:103BD40001020202010200000000000701020202C9
:103BE40001020200000000000702020201020201B9
:103BF40000000000000702020102020102000000AE
:103C04000000070201020201020200000000000796
:103C14000102020102020200000000000702010288
:103C24000201030100000000000702020302030076
:103C3400000000000000050302020302000000006F
:103C4400000000050202020202020000000000005F
:103C5400060101010101010101010101010C303AD8
:103C64003340404040404040404047474740404048
:103C740040404040404040404040373B3647474743
:103C840047474747474701010140404040404040C3
:103C94004040010101402F3C2F01020304050607A7
:103CA40008090001020102030405060708090001CE
:103CB4000211303A33404040404040404040404090
:103CC4004040373B364747474747474040404040DE
:103CD40040402F3C2F0102030405060102030405A2
:103CE4000611303A3340404040404040404040405C
:103CF400373B3647474747474040404040402F3CCA
:103D04002F0102030405010203040511303A334074
:103D14004040404040404040404040404040373BAD
:103D24003647474747474747404040404040404068
:103D34002F3C2F01020304050607010203040506B4
:103D44000711000000009A1317136313411355134E
:0A3D5400E113010305070002040655
:00000001FF
